:100000000C942A000C9447000C9449000C9447006F
:100010000C9447000C9447000C9447000C94470044
:100020000C9447000C9447000C9447000C9449042E
:100030000C9447000C9447000C9447000C94470024
:100040000C9447000C9447000C9447000C94470014
:100050000C94470011241FBECFE5D8E0DEBFCDBF12
:1000600011E0A0E6B0E0E6E5F9E002C005900D92EF
:10007000AE30B107D9F721E0AEE0B1E001C01D928A
:10008000A63EB207E1F70E942A030C94A9040C943F
:1000900000001F920F920FB60F9211242F933F93DF
:1000A0004F935F936F937F938F939F93AF93BF9380
:1000B000EF93FF93E0910E01F0910F01309709F05B
:1000C0000995FF91EF91BF91AF919F918F917F9192
:1000D0006F915F914F913F912F910F900FBE0F90B5
:1000E0001F90189581B3877F81BB81B38F7D81BBC2
:1000F00081B38F7B81BB81B38F7781BB82B38860F3
:1001000082BB82B3806282BB82B3806482BB82B3D3
:10011000806882BB84B3846084BB84B3886084BB02
:1001200084B3806184BB84B3806284BB8FE19EE42E
:100130000197F1F700C0000008958FEFE5E062C07D
:1001400095B39C6395BB95B36E2F70E021E030E0D2
:100150000E2E02C0220F331F0A94E2F720952923A6
:1001600025BB97E04BC0943009F4915020B3492F40
:1001700050E030E0092E02C0359527950A94E2F749
:1001800020FD3BC02FEF3BEDF5E021503040F0402B
:10019000E1F700C0000020B330E0092E02C0359521
:1001A00027950A94E2F720FD28C0933099F485E062
:1001B00090E0861B970B26E030E0241B350B880F60
:1001C000991F880F991F8B589F4FDC01A20FB31FF7
:1001D0008C9117C085E090E0861B970B27E030E0FC
:1001E000241B350B880F991F880F991F8B589F4F21
:1001F000DC01A20FB31F8C9104C09150933008F022
:10020000B2CFE150E23008F09BCF08950E949D00EC
:100210008F3F09F470C0811105C087E30E94EF0190
:1002200087E06CC0813029F488E30E94EF0188E008
:1002300065C0823029F489E30E94EF0189E05EC045
:10024000833029F485E20E94EF018DE057C08430AD
:1002500029F484E30E94EF0184E050C0853029F442
:1002600085E30E94EF0185E049C0863029F486E3EA
:100270000E94EF0186E042C0873029F488E50E94A1
:10028000EF018EE03BC0883029F481E30E94EF014A
:1002900081E034C0893029F482E30E94EF0182E0DA
:1002A0002DC08A3029F483E30E94EF0183E026C049
:1002B0008B3029F480E20E94EF018CE01FC08C306B
:1002C00021F40E9452028FEF19C08D3029F480E38F
:1002D0000E94EF0180E012C08E3031F482E690E09F
:1002E0000E943C028BE00AC08F3039F48CE20E94FD
:1002F000EF018AE003C08FEF01C08FEF90E0089517
:100300009BB3977F9BBB98B3987E98BB282F229571
:100310002F70922F9870492F50E0440F551F27706F
:10032000422B98B3492B48BB9BB39B7F9BBB9BB392
:1003300094609BBBEFE9FFE03197F1F700C000004C
:100340009BB39B7F9BBB98B3987E98BB982F98706C
:10035000292F30E0220F331F8770282B88B3282BDA
:1003600028BB8BB38B7F8BBB8BB384608BBB8FE93C
:100370009FE00197F1F700C000008BB38B7F8BBB30
:10038000EFE1FEE43197F1F700C0000008958AB371
:1003900084608ABB8AB388608ABB87B3816087BB6D
:1003A00087B3826087BB87B3846087BB87B3806174
:1003B00087BB87B3806287BB87B3806487BB82E0DB
:1003C0000E94800188E20E9480018CE00E948001EE
:1003D00080E80E94800181E00E94800108959BB323
:1003E00098609BBB98B3987E98BB282F22952F705E
:1003F000922F9870492F50E0440F551F2770422BC1
:1004000098B3492B48BB9BB39B7F9BBB9BB394602A
:100410009BBB2FEF31EE94E0215030409040E1F74C
:1004200000C000009BB39B7F9BBB98B3987E98BB9A
:10043000982F9870292F30E0220F331F8770282BB8
:1004400088B3282B28BB8BB38B7F8BBB8BB384608B
:100450008BBB2FEF31EE84E0215030408040E1F73C
:1004600000C000008BB38B7F8BBB8FE19EE40197B4
:10047000F1F700C0000008950F931F93CF93DF930F
:100480008C01C0E0D0E003C00E94EF012196F8018A
:10049000EC0FFD1F80818111F7CFDF91CF911F916C
:1004A0000F91089581E00E94800108958AB38061D0
:1004B0008ABB8AB380628ABB8AB380648ABB87B3F3
:1004C000806887BB08958BB38F7E8BBB8BB38F7D8A
:1004D0008BBB8BB38F7B8BBB88B38F7788BB089527
:1004E00040E050E01CC09C0121703078332334F48C
:1004F000215031092E6F3F6F2F5F3F4FFA01EE0FF2
:10050000FF1FE252FE4F318320839C01992314F494
:100510002F5F3F4FC901959587954F5F5F4F181625
:1005200019060CF380E090E029C02091E40130919D
:10053000E5012130310519F428B3206828BB20914A
:10054000E2013091E3012130310519F42BB320642D
:100550002BBB2091E0013091E1012130310519F4EC
:100560002BB320622BBB2091DE013091DF012130C3
:10057000310519F42BB320612BBB01968430910512
:10058000A4F208958091600090916100019690938B
:10059000610080936000892B29F12BC0FC01EE0FD4
:1005A000FF1FEC5EFE4F408151812091DC013091B4
:1005B000DD014217530789F40E943C048091100129
:1005C000909111010E94C6030E943C048091100189
:1005D000909111010E9470020CC00196909311013C
:1005E000809310018091100190911101803191054B
:1005F000ACF28091600090916100CE97B1F480914F
:10060000100190911101803191057CF42FEF3FEFA3
:1006100030936100209360000196909311018093C4
:1006200010010E9463020E943C048091100190918D
:100630001101409774F0109211011092100180E0A6
:1006400090E00E947C0480E39FE2909315018093E8
:10065000140108950E9472000E9456020E94C70170
:100660000E94720485E890E00E943C020E945202BF
:1006700085E990E00E943C020E9452028BEB90E0E0
:100680000E943C020E94520287ED90E00E943C02D0
:100690000E9452028AEF90E00E943C02C0E0D0E04B
:1006A00000E010E00E9406018F3F9105D9F39C0104
:1006B000215031092830310570F49E01220F331F7B
:1006C000CC0FDD1FCC0FDD1FCC0FDD1FC20FD31FE2
:1006D000C80FD91FE7CF8A30910561F4F801EE0FFA
:1006E000FF1FEC5EFE4FD183C0830F5F1F4FC0E042
:1006F000D0E0D8CF8B30910561F4F801EE0FFF1FE9
:10070000EC5EFE4FD183C0830F5F1F4FC0E0D0E08F
:10071000C9CF0C9739F6D093DD01C093DC010E945C
:10072000520281E091E00E943C020E9452020E942B
:100730009E0382EC92E00E947C04B4CF8AB3846072
:100740008ABB8AB388608ABB87B3806287BB87B362
:10075000806487BB88B3887E88BB87B3816087BB92
:1007600087B3826087BB87B3846087BB87B38061B0
:1007700087BB089528B3287E28BB9C0128703327A7
:10078000220F331F8770282B28BB0895AF92BF928A
:10079000CF92DF92EF92FF920F931F93CF93DF934D
:1007A000FC0168EE73E00E948104CB012AE030E096
:1007B000B9010E9481047C01CF0164E670E00E94CF
:1007C0008104CB01B9010E9481048C01CF01B901E0
:1007D0000E948104A82EB92ECB01B9010E94810488
:1007E000EC01C12CD12C38C0C7010E94BA0383EFA1
:1007F00091E00197F1F700C0000088B320E42827BA
:1008000028BBC8010E94BA0383EF91E00197F1F77A
:1008100000C0000088B320E2282728BBCE010E9438
:10082000BA0383EF91E00197F1F700C000008BB3AA
:1008300024E028272BBB8A2D9B2D0E94BA0383EF2F
:1008400091E00197F1F700C000008BB328E0282762
:100850002BBB95E0C90ED11C88EBC8168BE0D806DF
:1008600018F2DF91CF911F910F91FF90EF90DF90E1
:10087000CF90BF90AF90089588B3806488BB88B351
:10088000806288BB8BB384608BBB8BB388608BBB6F
:1008900008951F920F920FB60F9211242F933F933A
:1008A0004F935F936F937F938F939F93AF93BF9378
:1008B000EF93FF93E0911201F0911301309709F04B
:1008C0000995FF91EF91BF91AF919F918F917F918A
:1008D0006F915F914F913F912F910F900FBE0F90AD
:1008E0001F90189512BE89B7816089BF85E883BFC4
:1008F0008FB780688FBF0895909313018093120182
:10090000089597FB072E16F4009407D077FD09D0C1
:100910000E94950407FC05D03EF4909581959F4F69
:100920000895709561957F4F0895AA1BBB1B51E1F7
:1009300007C0AA1FBB1FA617B70710F0A61BB70B4F
:10094000881F991F5A95A9F780959095BC01CD01F4
:060950000895F894FFCFAA
:10095600FFFF204E756D20666F72207365617263AE
:1009660068203A2000000102030405060708090A68
:100976000B0C0D0E0F696E737472756374696F6E6E
:10098600732E2E2E002B203A20636F6E6669672029
:1009960064696769742C2020203D203A20636F6EBD
:1009A600666967204C6973742C20002D203A2063F9
:1009B6006F6E666967206B657920666F722020739B
:1009C60065617263682000656E746572207468657F
:1009D600206C69737420616E6420206B65792066D3
:1009E6006F7220736561726368006C6973743A2074
:0E09F600006C6F6164696E672E2E2E2E00005D
:00000001FF
